{
    "contractName": "ChadHR",
    "abi": [
        {
            "inputs": [],
            "stateMutability": "nonpayable",
            "type": "constructor"
        },
        {
            "inputs": [
                {
                    "internalType": "string",
                    "name": "badgeName",
                    "type": "string"
                }
            ],
            "name": "AddBadge",
            "outputs": [],
            "stateMutability": "payable",
            "type": "function"
        },
        {
            "inputs": [],
            "name": "GetBadges",
            "outputs": [
                {
                    "components": [
                        {
                            "internalType": "string",
                            "name": "badgeName",
                            "type": "string"
                        },
                        {
                            "internalType": "string[]",
                            "name": "badgeOwners",
                            "type": "string[]"
                        }
                    ],
                    "internalType": "struct ChadHR.Badge[]",
                    "name": "",
                    "type": "tuple[]"
                }
            ],
            "stateMutability": "view",
            "type": "function"
        },
        {
            "inputs": [
                {
                    "internalType": "string",
                    "name": "badgeName",
                    "type": "string"
                },
                {
                    "internalType": "string",
                    "name": "newGuy",
                    "type": "string"
                }
            ],
            "name": "GiveBadge",
            "outputs": [],
            "stateMutability": "payable",
            "type": "function"
        },
        {
            "inputs": [
                {
                    "internalType": "uint256",
                    "name": "",
                    "type": "uint256"
                }
            ],
            "name": "badges",
            "outputs": [
                {
                    "internalType": "string",
                    "name": "badgeName",
                    "type": "string"
                }
            ],
            "stateMutability": "view",
            "type": "function"
        },
        {
            "inputs": [],
            "name": "firmOwner",
            "outputs": [
                {
                    "internalType": "address",
                    "name": "",
                    "type": "address"
                }
            ],
            "stateMutability": "view",
            "type": "function"
        },
        {
            "inputs": [],
            "name": "hasBadge",
            "outputs": [
                {
                    "internalType": "int256",
                    "name": "",
                    "type": "int256"
                }
            ],
            "stateMutability": "view",
            "type": "function"
        }
    ],
    "bytecode": "608060405234801561001057600080fd5b50600180546001600160a01b03191633179055610c4d806100326000396000f3fe6080604052600436106100555760003560e01c806307ae0b7b1461005a578063089e42eb14610083578063182cfbbf146100985780635687c77c146100ab57806394e2a6e4146100cd57806398e36d8b14610105575b600080fd5b34801561006657600080fd5b5061007060025481565b6040519081526020015b60405180910390f35b61009661009136600461080a565b610132565b005b6100966100a6366004610847565b6102ca565b3480156100b757600080fd5b506100c0610422565b60405161007a9190610903565b3480156100d957600080fd5b506001546100ed906001600160a01b031681565b6040516001600160a01b03909116815260200161007a565b34801561011157600080fd5b506101256101203660046109c6565b6105ec565b60405161007a91906109df565b60008054600255600019905b6000548112156101d4576000818154811061015b5761015b6109f9565b906000526020600020906002020160000160405160200161017c9190610a49565b60405160208183030381529060405280519060200120836040516020016101a39190610abf565b60405160208183030381529060405280519060200120036101c2578091505b806101cc81610adb565b91505061013e565b5080600019146102465760405162461bcd60e51b815260206004820152603260248201527f5468697320626164676520697320616c72656164792070726573656e742c2074604482015271393c9030b737ba3432b9103730b6b297171760711b60648201526084015b60405180910390fd5b6040805180820182528381528151600080825260208281019094529282019083610280565b606081526020019060019003908161026b5790505b50905281546001810183556000928352602090922081519192600202019081906102aa9082610b57565b5060208281015180516102c392600185019201906106a2565b5050505050565b60001960005b60005481121561036657600081815481106102ed576102ed6109f9565b906000526020600020906002020160000160405160200161030e9190610a49565b60405160208183030381529060405280519060200120846040516020016103359190610abf565b6040516020818303038152906040528051906020012003610354578091505b8061035e81610adb565b9150506102d0565b5060008112156103de5760405162461bcd60e51b815260206004820152603c60248201527f5468657265206973206e6f20737563682062616467652c20636865636b20737060448201527f656c6c696e6773206f6620746865206261646765206e616d652e2e2e00000000606482015260840161023d565b600081815481106103f1576103f16109f9565b60009182526020808320600160029093020182018054928301815583529091200161041c8382610b57565b50505050565b60606000805480602002602001604051908101604052809291908181526020016000905b828210156105e3578382906000526020600020906002020160405180604001604052908160008201805461047990610a0f565b80601f01602080910402602001604051908101604052809291908181526020018280546104a590610a0f565b80156104f25780601f106104c7576101008083540402835291602001916104f2565b820191906000526020600020905b8154815290600101906020018083116104d557829003601f168201915b5050505050815260200160018201805480602002602001604051908101604052809291908181526020016000905b828210156105cc57838290600052602060002001805461053f90610a0f565b80601f016020809104026020016040519081016040528092919081815260200182805461056b90610a0f565b80156105b85780601f1061058d576101008083540402835291602001916105b8565b820191906000526020600020905b81548152906001019060200180831161059b57829003601f168201915b505050505081526020019060010190610520565b505050508152505081526020019060010190610446565b50505050905090565b600081815481106105fc57600080fd5b906000526020600020906002020160009150905080600001805461061f90610a0f565b80601f016020809104026020016040519081016040528092919081815260200182805461064b90610a0f565b80156106985780601f1061066d57610100808354040283529160200191610698565b820191906000526020600020905b81548152906001019060200180831161067b57829003601f168201915b5050505050905081565b8280548282559060005260206000209081019282156106e8579160200282015b828111156106e857825182906106d89082610b57565b50916020019190600101906106c2565b506106f49291506106f8565b5090565b808211156106f457600061070c8282610715565b506001016106f8565b50805461072190610a0f565b6000825580601f10610731575050565b601f01602090049060005260206000209081019061074f9190610752565b50565b5b808211156106f45760008155600101610753565b634e487b7160e01b600052604160045260246000fd5b600082601f83011261078e57600080fd5b813567ffffffffffffffff808211156107a9576107a9610767565b604051601f8301601f19908116603f011681019082821181831017156107d1576107d1610767565b816040528381528660208588010111156107ea57600080fd5b836020870160208301376000602085830101528094505050505092915050565b60006020828403121561081c57600080fd5b813567ffffffffffffffff81111561083357600080fd5b61083f8482850161077d565b949350505050565b6000806040838503121561085a57600080fd5b823567ffffffffffffffff8082111561087257600080fd5b61087e8683870161077d565b9350602085013591508082111561089457600080fd5b506108a18582860161077d565b9150509250929050565b60005b838110156108c65781810151838201526020016108ae565b8381111561041c5750506000910152565b600081518084526108ef8160208601602086016108ab565b601f01601f19169290920160200192915050565b602080825282518282018190526000919060409081850190600581811b8701840188860187805b858110156109b6578a8403603f190187528251805189865261094e8a8701826108d7565b918b0151868303878d01528051808452908c019291508b82019080891b83018d01865b8281101561099f57601f1985830301845261098d8287516108d7565b958f0195938f01939150600101610971565b509a8d019a97505050938a0193505060010161092a565b50919a9950505050505050505050565b6000602082840312156109d857600080fd5b5035919050565b6020815260006109f260208301846108d7565b9392505050565b634e487b7160e01b600052603260045260246000fd5b600181811c90821680610a2357607f821691505b602082108103610a4357634e487b7160e01b600052602260045260246000fd5b50919050565b6000808354610a5781610a0f565b60018281168015610a6f5760018114610a8457610ab3565b60ff1984168752821515830287019450610ab3565b8760005260208060002060005b85811015610aaa5781548a820152908401908201610a91565b50505082870194505b50929695505050505050565b60008251610ad18184602087016108ab565b9190910192915050565b60006001600160ff1b018201610b0157634e487b7160e01b600052601160045260246000fd5b5060010190565b601f821115610b5257600081815260208120601f850160051c81016020861015610b2f5750805b601f850160051c820191505b81811015610b4e57828155600101610b3b565b5050505b505050565b815167ffffffffffffffff811115610b7157610b71610767565b610b8581610b7f8454610a0f565b84610b08565b602080601f831160018114610bba5760008415610ba25750858301515b600019600386901b1c1916600185901b178555610b4e565b600085815260208120601f198616915b82811015610be957888601518255948401946001909101908401610bca565b5085821015610c075787850151600019600388901b60f8161c191681555b5050505050600190811b0190555056fea2646970667358221220e0bbc5d58cd70ae179e8f3932e6754093a2496ee4d1b189d2f9961485491945e64736f6c634300080f0033",
    "sourcePath": "d:/Programming/Solidity/Smart Contracts/Chad HR/ChadHR.sol",
    "compiler": {
        "name": "solc",
        "version": "0.8.15+commit.e14f2714"
    },
    "functionHashes": {
        "AddBadge(string)": "089e42eb",
        "GetBadges()": "5687c77c",
        "GiveBadge(string,string)": "182cfbbf",
        "badges(uint256)": "98e36d8b",
        "firmOwner()": "94e2a6e4",
        "hasBadge()": "07ae0b7b"
    },
    "gasEstimates": {
        "creation": {
            "codeDepositCost": "629800",
            "executionCost": "24899",
            "totalCost": "654699"
        },
        "external": {
            "AddBadge(string)": "infinite",
            "GetBadges()": "infinite",
            "GiveBadge(string,string)": "infinite",
            "badges(uint256)": "infinite",
            "firmOwner()": "2403",
            "hasBadge()": "2262"
        }
    }
}